:100000000C9434000C9451000C9451000C94510049
:100010000C9451000C9451000C9451000C9451001C
:100020000C9451000C9451000C9451000C9451000C
:100030000C9451000C9453000C9451000C945100FA
:100040000C9451000C9451000C94B4000C94E200F8
:100050000C9451000C9468000C9451000C945100C5
:100060000C9451000C94510011241FBECFEFD8E026
:10007000DEBFCDBF11E0A0E0B1E0E0EBF3E002C0F5
:1000800005900D92A830B107D9F721E0A8E0B1E0C2
:1000900001C01D92AD38B207E1F70E9473010C94C4
:1000A000D6010C9400001F920F920FB60F921124EC
:1000B0008F93EF93FF93EAE7F0E080818064808381
:1000C000FF91EF918F910F900FBE0F901F90189599
:1000D0001F920F920FB60F9211242F933F934F93BD
:1000E0005F936F937F938F939F93AF93BF93EF93A0
:1000F000FF93CF93DF9300D000D0CDB7DEB78091D0
:10010000000190910101A0910201B0910301898346
:100110009A83AB83BC8380917800909179004AE008
:10012000BE016F5F7F4F0E94A101CE0101960E9428
:10013000580185E091E00E9458010F900F900F90B8
:100140000F90DF91CF91FF91EF91BF91AF919F9170
:100150008F917F916F915F914F913F912F910F9070
:100160000FBE0F901F9018951F920F920FB60F920F
:1001700011242F938F939F93EF93FF938091C0004F
:100180009091C6008C71E0910A01EF5FEF732091AE
:100190000901E21739F0E0930A01F0E0E35FFE4F56
:1001A000908301C082E090910801892B809308011F
:1001B000FF91EF919F918F912F910F900FBE0F9014
:1001C0001F9018951F920F920FB60F9211248F93C4
:1001D0009F93EF93FF9390910C0180910B019817DF
:1001E00069F0E0910B01EF5FEF73E0930B01F0E03A
:1001F000E35BFE4F80818093C60005C08091C10003
:100200008F7D8093C100FF91EF919F918F910F900F
:100210000FBE0F901F90189510920C0110920B01B9
:1002200010920A011092090197FF03C022E0209367
:10023000C00090789093C5008093C40088E98093B3
:10024000C10086E08093C200089590910A018091D8
:1002500009019817A9F0909109019F5F9F73E92FF9
:10026000F0E0E35FFE4F2081809108019093090147
:100270001092080190E0982F8827820F911D089511
:1002800080E091E0089590910C019F5F9F73209111
:100290000B019217E1F3E92FF0E0E35BFE4F80835F
:1002A00090930C018091C10080628093C1000895F9
:1002B000CF93DF93EC018991882319F00E944301C9
:1002C000FACFDF91CF910895CF93DF93FC01849112
:1002D000EF012196882321F00E944301FE01F7CF10
:1002E000DF91CF91089580917C00806480937C00A1
:1002F00080917C00807F80937C0080917A00806870
:1003000080937A0080917A00886080937A0080914F
:100310007A00876080937A00809181008B7F809340
:1003200081008091810083608093810080916F00C3
:10033000816080936F0087E690E00E940C017894C2
:10034000FFCFBB274A3031F4992322F4BDE29095C8
:1003500081959F4F0C94AD01BB27FB015527AA2720
:10036000880F991FAA1FA41710F0A41B8395505142
:10037000B9F7A05DAA3308F0A95DA193009779F7BA
:10038000B111B1931192CB010C94C601DC01FC01B7
:10039000672F71917723E1F7329704C07C916D93B9
:1003A00070836291AE17BF07C8F30895F894FFCF2A
:0803B00020202020000D0A00AE
:00000001FF
